{
  "_format": "hh-sol-artifact-1",
  "contractName": "DAO",
  "sourceName": "contracts/DAO.sol",
  "abi": [
    {
      "inputs": [],
      "name": "AccessControlBadConfirmation",
      "type": "error"
    },
    {
      "inputs": [
        {
          "internalType": "address",
          "name": "account",
          "type": "address"
        },
        {
          "internalType": "bytes32",
          "name": "neededRole",
          "type": "bytes32"
        }
      ],
      "name": "AccessControlUnauthorizedAccount",
      "type": "error"
    },
    {
      "inputs": [],
      "name": "ReentrancyGuardReentrantCall",
      "type": "error"
    },
    {
      "anonymous": false,
      "inputs": [
        {
          "indexed": true,
          "internalType": "address",
          "name": "initiator",
          "type": "address"
        },
        {
          "indexed": false,
          "internalType": "bytes32",
          "name": "role",
          "type": "bytes32"
        },
        {
          "indexed": false,
          "internalType": "string",
          "name": "message",
          "type": "string"
        },
        {
          "indexed": true,
          "internalType": "address",
          "name": "beneficiary",
          "type": "address"
        },
        {
          "indexed": false,
          "internalType": "uint256",
          "name": "amount",
          "type": "uint256"
        }
      ],
      "name": "Action",
      "type": "event"
    },
    {
      "anonymous": false,
      "inputs": [
        {
          "indexed": true,
          "internalType": "bytes32",
          "name": "role",
          "type": "bytes32"
        },
        {
          "indexed": true,
          "internalType": "bytes32",
          "name": "previousAdminRole",
          "type": "bytes32"
        },
        {
          "indexed": true,
          "internalType": "bytes32",
          "name": "newAdminRole",
          "type": "bytes32"
        }
      ],
      "name": "RoleAdminChanged",
      "type": "event"
    },
    {
      "anonymous": false,
      "inputs": [
        {
          "indexed": true,
          "internalType": "bytes32",
          "name": "role",
          "type": "bytes32"
        },
        {
          "indexed": true,
          "internalType": "address",
          "name": "account",
          "type": "address"
        },
        {
          "indexed": true,
          "internalType": "address",
          "name": "sender",
          "type": "address"
        }
      ],
      "name": "RoleGranted",
      "type": "event"
    },
    {
      "anonymous": false,
      "inputs": [
        {
          "indexed": true,
          "internalType": "bytes32",
          "name": "role",
          "type": "bytes32"
        },
        {
          "indexed": true,
          "internalType": "address",
          "name": "account",
          "type": "address"
        },
        {
          "indexed": true,
          "internalType": "address",
          "name": "sender",
          "type": "address"
        }
      ],
      "name": "RoleRevoked",
      "type": "event"
    },
    {
      "inputs": [],
      "name": "DEFAULT_ADMIN_ROLE",
      "outputs": [
        {
          "internalType": "bytes32",
          "name": "",
          "type": "bytes32"
        }
      ],
      "stateMutability": "view",
      "type": "function"
    },
    {
      "inputs": [
        {
          "internalType": "uint256",
          "name": "proposalId",
          "type": "uint256"
        },
        {
          "internalType": "bool",
          "name": "chosen",
          "type": "bool"
        }
      ],
      "name": "Vote",
      "outputs": [
        {
          "components": [
            {
              "internalType": "address",
              "name": "voter",
              "type": "address"
            },
            {
              "internalType": "uint256",
              "name": "timestamp",
              "type": "uint256"
            },
            {
              "internalType": "bool",
              "name": "chosen",
              "type": "bool"
            }
          ],
          "internalType": "struct DAO.Voted",
          "name": "",
          "type": "tuple"
        }
      ],
      "stateMutability": "nonpayable",
      "type": "function"
    },
    {
      "inputs": [],
      "name": "contribute",
      "outputs": [],
      "stateMutability": "payable",
      "type": "function"
    },
    {
      "inputs": [
        {
          "internalType": "string",
          "name": "title",
          "type": "string"
        },
        {
          "internalType": "string",
          "name": "description",
          "type": "string"
        },
        {
          "internalType": "address",
          "name": "beneficiary",
          "type": "address"
        },
        {
          "internalType": "uint256",
          "name": "amount",
          "type": "uint256"
        }
      ],
      "name": "createProposal",
      "outputs": [],
      "stateMutability": "nonpayable",
      "type": "function"
    },
    {
      "inputs": [],
      "name": "daoBalance",
      "outputs": [
        {
          "internalType": "uint256",
          "name": "",
          "type": "uint256"
        }
      ],
      "stateMutability": "view",
      "type": "function"
    },
    {
      "inputs": [
        {
          "internalType": "uint256",
          "name": "proposalId",
          "type": "uint256"
        }
      ],
      "name": "getProposal",
      "outputs": [
        {
          "components": [
            {
              "internalType": "uint256",
              "name": "id",
              "type": "uint256"
            },
            {
              "internalType": "uint256",
              "name": "amount",
              "type": "uint256"
            },
            {
              "internalType": "uint256",
              "name": "duration",
              "type": "uint256"
            },
            {
              "internalType": "uint256",
              "name": "upvotes",
              "type": "uint256"
            },
            {
              "internalType": "uint256",
              "name": "downVotes",
              "type": "uint256"
            },
            {
              "internalType": "string",
              "name": "title",
              "type": "string"
            },
            {
              "internalType": "string",
              "name": "description",
              "type": "string"
            },
            {
              "internalType": "bool",
              "name": "passed",
              "type": "bool"
            },
            {
              "internalType": "bool",
              "name": "paid",
              "type": "bool"
            },
            {
              "internalType": "address payable",
              "name": "beneficiary",
              "type": "address"
            },
            {
              "internalType": "address",
              "name": "proposer",
              "type": "address"
            },
            {
              "internalType": "address",
              "name": "executor",
              "type": "address"
            }
          ],
          "internalType": "struct DAO.Proposals",
          "name": "",
          "type": "tuple"
        }
      ],
      "stateMutability": "view",
      "type": "function"
    },
    {
      "inputs": [],
      "name": "getProposals",
      "outputs": [
        {
          "components": [
            {
              "internalType": "uint256",
              "name": "id",
              "type": "uint256"
            },
            {
              "internalType": "uint256",
              "name": "amount",
              "type": "uint256"
            },
            {
              "internalType": "uint256",
              "name": "duration",
              "type": "uint256"
            },
            {
              "internalType": "uint256",
              "name": "upvotes",
              "type": "uint256"
            },
            {
              "internalType": "uint256",
              "name": "downVotes",
              "type": "uint256"
            },
            {
              "internalType": "string",
              "name": "title",
              "type": "string"
            },
            {
              "internalType": "string",
              "name": "description",
              "type": "string"
            },
            {
              "internalType": "bool",
              "name": "passed",
              "type": "bool"
            },
            {
              "internalType": "bool",
              "name": "paid",
              "type": "bool"
            },
            {
              "internalType": "address payable",
              "name": "beneficiary",
              "type": "address"
            },
            {
              "internalType": "address",
              "name": "proposer",
              "type": "address"
            },
            {
              "internalType": "address",
              "name": "executor",
              "type": "address"
            }
          ],
          "internalType": "struct DAO.Proposals[]",
          "name": "props",
          "type": "tuple[]"
        }
      ],
      "stateMutability": "view",
      "type": "function"
    },
    {
      "inputs": [
        {
          "internalType": "bytes32",
          "name": "role",
          "type": "bytes32"
        }
      ],
      "name": "getRoleAdmin",
      "outputs": [
        {
          "internalType": "bytes32",
          "name": "",
          "type": "bytes32"
        }
      ],
      "stateMutability": "view",
      "type": "function"
    },
    {
      "inputs": [],
      "name": "getStakeHolderBalance",
      "outputs": [
        {
          "internalType": "uint256",
          "name": "",
          "type": "uint256"
        }
      ],
      "stateMutability": "view",
      "type": "function"
    },
    {
      "inputs": [],
      "name": "getStakeHolderVotes",
      "outputs": [
        {
          "internalType": "uint256[]",
          "name": "",
          "type": "uint256[]"
        }
      ],
      "stateMutability": "view",
      "type": "function"
    },
    {
      "inputs": [
        {
          "internalType": "uint256",
          "name": "proposalId",
          "type": "uint256"
        }
      ],
      "name": "getVoteOf",
      "outputs": [
        {
          "components": [
            {
              "internalType": "address",
              "name": "voter",
              "type": "address"
            },
            {
              "internalType": "uint256",
              "name": "timestamp",
              "type": "uint256"
            },
            {
              "internalType": "bool",
              "name": "chosen",
              "type": "bool"
            }
          ],
          "internalType": "struct DAO.Voted[]",
          "name": "",
          "type": "tuple[]"
        }
      ],
      "stateMutability": "view",
      "type": "function"
    },
    {
      "inputs": [
        {
          "internalType": "bytes32",
          "name": "role",
          "type": "bytes32"
        },
        {
          "internalType": "address",
          "name": "account",
          "type": "address"
        }
      ],
      "name": "grantRole",
      "outputs": [],
      "stateMutability": "nonpayable",
      "type": "function"
    },
    {
      "inputs": [
        {
          "internalType": "bytes32",
          "name": "role",
          "type": "bytes32"
        },
        {
          "internalType": "address",
          "name": "account",
          "type": "address"
        }
      ],
      "name": "hasRole",
      "outputs": [
        {
          "internalType": "bool",
          "name": "",
          "type": "bool"
        }
      ],
      "stateMutability": "view",
      "type": "function"
    },
    {
      "inputs": [
        {
          "internalType": "uint256",
          "name": "proposalId",
          "type": "uint256"
        }
      ],
      "name": "payBeneficiary",
      "outputs": [
        {
          "internalType": "uint256",
          "name": "",
          "type": "uint256"
        }
      ],
      "stateMutability": "nonpayable",
      "type": "function"
    },
    {
      "inputs": [
        {
          "internalType": "bytes32",
          "name": "role",
          "type": "bytes32"
        },
        {
          "internalType": "address",
          "name": "callerConfirmation",
          "type": "address"
        }
      ],
      "name": "renounceRole",
      "outputs": [],
      "stateMutability": "nonpayable",
      "type": "function"
    },
    {
      "inputs": [
        {
          "internalType": "bytes32",
          "name": "role",
          "type": "bytes32"
        },
        {
          "internalType": "address",
          "name": "account",
          "type": "address"
        }
      ],
      "name": "revokeRole",
      "outputs": [],
      "stateMutability": "nonpayable",
      "type": "function"
    },
    {
      "inputs": [
        {
          "internalType": "bytes4",
          "name": "interfaceId",
          "type": "bytes4"
        }
      ],
      "name": "supportsInterface",
      "outputs": [
        {
          "internalType": "bool",
          "name": "",
          "type": "bool"
        }
      ],
      "stateMutability": "view",
      "type": "function"
    }
  ],
  "bytecode": "0x6101006040527fa0bb1af1c90aa52ed052b92714ff0087008cc720049bf1af77cca2600b31e80c6080908152507ff4bb84e1768dd286358a736d195a0b228621173f655a73b89bf8b191ed0ba07d60a090815250670de0b6b3a764000060c09081525060b463ffffffff1660e09063ffffffff1681525034801561008257600080fd5b50600160008190555060805160a05160c05160e05161371b61010a6000396000610f3b0152600061189b0152600081816105d70152818161086801528181610d2501528181610df101528181610fc401528181611046015281816112d3015281816116bb01528181611821015261190901526000818161198b0152611ace015261371b6000f3fe6080604052600436106100fe5760003560e01c80637cdc2eb711610095578063bd97281611610064578063bd9728161461036d578063c7f758a814610398578063c8c2cfa7146103d5578063d547741f14610400578063d7bb99ba14610429576100fe565b80637cdc2eb71461029f5780638bfa1f40146102c857806391d1485414610305578063a217fddf14610342576100fe565b80632f2ff15d116100d15780632f2ff15d146101f757806336568abe1461022057806362564c4814610249578063761c048114610274576100fe565b806301ffc9a71461010357806302d7795414610140578063119c37c81461017d578063248a9ca3146101ba575b600080fd5b34801561010f57600080fd5b5061012a600480360381019061012591906121a9565b610433565b60405161013791906121f1565b60405180910390f35b34801561014c57600080fd5b5061016760048036038101906101629190612242565b6104ad565b60405161017491906123bf565b60405180910390f35b34801561018957600080fd5b506101a4600480360381019061019f9190612242565b61059a565b6040516101b191906123f0565b60405180910390f35b3480156101c657600080fd5b506101e160048036038101906101dc9190612441565b6108b6565b6040516101ee919061247d565b60405180910390f35b34801561020357600080fd5b5061021e600480360381019061021991906124c4565b6108d6565b005b34801561022c57600080fd5b50610247600480360381019061024291906124c4565b6108f8565b005b34801561025557600080fd5b5061025e610973565b60405161026b9190612782565b60405180910390f35b34801561028057600080fd5b50610289610ce8565b60405161029691906123f0565b60405180910390f35b3480156102ab57600080fd5b506102c660048036038101906102c191906128d9565b610dd3565b005b3480156102d457600080fd5b506102ef60048036038101906102ea91906129a4565b611003565b6040516102fc9190612a26565b60405180910390f35b34801561031157600080fd5b5061032c600480360381019061032791906124c4565b61134a565b60405161033991906121f1565b60405180910390f35b34801561034e57600080fd5b506103576113b5565b604051610364919061247d565b60405180910390f35b34801561037957600080fd5b506103826113bc565b60405161038f91906123f0565b60405180910390f35b3480156103a457600080fd5b506103bf60048036038101906103ba9190612242565b6113c2565b6040516103cc9190612b4c565b60405180910390f35b3480156103e157600080fd5b506103ea61167e565b6040516103f79190612c1d565b60405180910390f35b34801561040c57600080fd5b50610427600480360381019061042291906124c4565b6117b7565b005b6104316117d9565b005b60007f7965db0b000000000000000000000000000000000000000000000000000000007bffffffffffffffffffffffffffffffffffffffffffffffffffffffff1916827bffffffffffffffffffffffffffffffffffffffffffffffffffffffff191614806104a657506104a582611b06565b5b9050919050565b606060066000838152602001908152602001600020805480602002602001604051908101604052809291908181526020016000905b8282101561058f57838290600052602060002090600302016040518060600160405290816000820160009054906101000a900473ffffffffffffffffffffffffffffffffffffffff1673ffffffffffffffffffffffffffffffffffffffff1673ffffffffffffffffffffffffffffffffffffffff168152602001600182015481526020016002820160009054906101000a900460ff161515151581525050815260200190600101906104e2565b505050509050919050565b60006040518060400160405280601e81526020017f556e617574686f72697a6564202c5374616b65686f6c646572206f6e6c7900008152506105fc7f00000000000000000000000000000000000000000000000000000000000000003361134a565b819061063e576040517f08c379a00000000000000000000000000000000000000000000000000000000081526004016106359190612c89565b60405180910390fd5b50610647611b70565b6000600460008581526020019081526020016000209050806001015460035410156106a7576040517f08c379a000000000000000000000000000000000000000000000000000000000815260040161069e90612cf7565b60405180910390fd5b8060070160019054906101000a900460ff16156106f9576040517f08c379a00000000000000000000000000000000000000000000000000000000081526004016106f090612d63565b60405180910390fd5b8060040154816003015411610743576040517f08c379a000000000000000000000000000000000000000000000000000000000815260040161073a90612dcf565b60405180910390fd5b60018160070160016101000a81548160ff021916908315150217905550338160090160006101000a81548173ffffffffffffffffffffffffffffffffffffffff021916908373ffffffffffffffffffffffffffffffffffffffff1602179055508060010154600360008282546107b99190612e1e565b925050819055506107f28160070160029054906101000a900473ffffffffffffffffffffffffffffffffffffffff168260010154611bb6565b508060070160029054906101000a900473ffffffffffffffffffffffffffffffffffffffff1673ffffffffffffffffffffffffffffffffffffffff163373ffffffffffffffffffffffffffffffffffffffff167fa596782d699d74613fcbf59d33e720baabd313d6be9c95e2268f305430305eb77f0000000000000000000000000000000000000000000000000000000000000000846001015460405161089a929190612e9e565b60405180910390a36003549250506108b0611c6e565b50919050565b600060016000838152602001908152602001600020600101549050919050565b6108df826108b6565b6108e881611c78565b6108f28383611c8c565b50505050565b610900611d7d565b73ffffffffffffffffffffffffffffffffffffffff168173ffffffffffffffffffffffffffffffffffffffff1614610964576040517f6697b23200000000000000000000000000000000000000000000000000000000815260040160405180910390fd5b61096e8282611d85565b505050565b6060600260009054906101000a900463ffffffff1663ffffffff1667ffffffffffffffff8111156109a7576109a66127ae565b5b6040519080825280602002602001820160405280156109e057816020015b6109cd61205d565b8152602001906001900390816109c55790505b50905060005b600260009054906101000a900463ffffffff1663ffffffff16811015610ce45760046000828152602001908152602001600020604051806101800160405290816000820154815260200160018201548152602001600282015481526020016003820154815260200160048201548152602001600582018054610a6790612f09565b80601f0160208091040260200160405190810160405280929190818152602001828054610a9390612f09565b8015610ae05780601f10610ab557610100808354040283529160200191610ae0565b820191906000526020600020905b815481529060010190602001808311610ac357829003601f168201915b50505050508152602001600682018054610af990612f09565b80601f0160208091040260200160405190810160405280929190818152602001828054610b2590612f09565b8015610b725780601f10610b4757610100808354040283529160200191610b72565b820191906000526020600020905b815481529060010190602001808311610b5557829003601f168201915b505050505081526020016007820160009054906101000a900460ff161515151581526020016007820160019054906101000a900460ff161515151581526020016007820160029054906101000a900473ffffffffffffffffffffffffffffffffffffffff1673ffffffffffffffffffffffffffffffffffffffff1673ffffffffffffffffffffffffffffffffffffffff1681526020016008820160009054906101000a900473ffffffffffffffffffffffffffffffffffffffff1673ffffffffffffffffffffffffffffffffffffffff1673ffffffffffffffffffffffffffffffffffffffff1681526020016009820160009054906101000a900473ffffffffffffffffffffffffffffffffffffffff1673ffffffffffffffffffffffffffffffffffffffff1673ffffffffffffffffffffffffffffffffffffffff1681525050828281518110610cc657610cc5612f3a565b5b60200260200101819052508080610cdc90612f69565b9150506109e6565b5090565b60006040518060400160405280601f81526020017f556e617574686f72697a65642c4e6f742061205374616b6520486f6c64657200815250610d4a7f00000000000000000000000000000000000000000000000000000000000000003361134a565b8190610d8c576040517f08c379a0000000000000000000000000000000000000000000000000000000008152600401610d839190612c89565b60405180910390fd5b50600860003373ffffffffffffffffffffffffffffffffffffffff1673ffffffffffffffffffffffffffffffffffffffff1681526020019081526020016000205491505090565b6040518060600160405280603481526020016136b260349139610e167f00000000000000000000000000000000000000000000000000000000000000003361134a565b8190610e58576040517f08c379a0000000000000000000000000000000000000000000000000000000008152600401610e4f9190612c89565b60405180910390fd5b5060006002600081819054906101000a900463ffffffff1680929190610e7d90612fc1565b91906101000a81548163ffffffff021916908363ffffffff16021790555090506000600460008363ffffffff16815260200190815260200160002090508163ffffffff168160000181905550338160080160006101000a81548173ffffffffffffffffffffffffffffffffffffffff021916908373ffffffffffffffffffffffffffffffffffffffff16021790555086816005019081610f1d9190613199565b5085816006019081610f2f9190613199565b508381600101819055507f000000000000000000000000000000000000000000000000000000000000000063ffffffff1642610f6b919061326b565b81600201819055508473ffffffffffffffffffffffffffffffffffffffff163373ffffffffffffffffffffffffffffffffffffffff167fa596782d699d74613fcbf59d33e720baabd313d6be9c95e2268f305430305eb77f000000000000000000000000000000000000000000000000000000000000000087604051610ff29291906132eb565b60405180910390a350505050505050565b61100b612104565b6040518060400160405280601381526020017f556e617574686f72697a6564204163636573730000000000000000000000000081525061106b7f00000000000000000000000000000000000000000000000000000000000000003361134a565b81906110ad576040517f08c379a00000000000000000000000000000000000000000000000000000000081526004016110a49190612c89565b60405180910390fd5b5060006004600086815260200190815260200160002090506110ce81611e78565b83156110f3578060030160008154809291906110e990612f69565b919050555061110e565b80600401600081548092919061110890612f69565b91905055505b600560003373ffffffffffffffffffffffffffffffffffffffff1673ffffffffffffffffffffffffffffffffffffffff16815260200190815260200160002081600001549080600181540180825580915050600190039060005260206000200160009091909190915055600660008260000154815260200190815260200160002060405180606001604052803373ffffffffffffffffffffffffffffffffffffffff168152602001428152602001861515815250908060018154018082558091505060019003906000526020600020906003020160009091909190915060008201518160000160006101000a81548173ffffffffffffffffffffffffffffffffffffffff021916908373ffffffffffffffffffffffffffffffffffffffff1602179055506020820151816001015560408201518160020160006101000a81548160ff02191690831515021790555050508060070160029054906101000a900473ffffffffffffffffffffffffffffffffffffffff1673ffffffffffffffffffffffffffffffffffffffff163373ffffffffffffffffffffffffffffffffffffffff167fa596782d699d74613fcbf59d33e720baabd313d6be9c95e2268f305430305eb77f00000000000000000000000000000000000000000000000000000000000000008460010154604051611305929190613373565b60405180910390a360405180606001604052803373ffffffffffffffffffffffffffffffffffffffff1681526020014281526020018515158152509250505092915050565b60006001600084815260200190815260200160002060000160008373ffffffffffffffffffffffffffffffffffffffff1673ffffffffffffffffffffffffffffffffffffffff16815260200190815260200160002060009054906101000a900460ff16905092915050565b6000801b81565b60035481565b6113ca61205d565b6004600083815260200190815260200160002060405180610180016040529081600082015481526020016001820154815260200160028201548152602001600382015481526020016004820154815260200160058201805461142b90612f09565b80601f016020809104026020016040519081016040528092919081815260200182805461145790612f09565b80156114a45780601f10611479576101008083540402835291602001916114a4565b820191906000526020600020905b81548152906001019060200180831161148757829003601f168201915b505050505081526020016006820180546114bd90612f09565b80601f01602080910402602001604051908101604052809291908181526020018280546114e990612f09565b80156115365780601f1061150b57610100808354040283529160200191611536565b820191906000526020600020905b81548152906001019060200180831161151957829003601f168201915b505050505081526020016007820160009054906101000a900460ff161515151581526020016007820160019054906101000a900460ff161515151581526020016007820160029054906101000a900473ffffffffffffffffffffffffffffffffffffffff1673ffffffffffffffffffffffffffffffffffffffff1673ffffffffffffffffffffffffffffffffffffffff1681526020016008820160009054906101000a900473ffffffffffffffffffffffffffffffffffffffff1673ffffffffffffffffffffffffffffffffffffffff1673ffffffffffffffffffffffffffffffffffffffff1681526020016009820160009054906101000a900473ffffffffffffffffffffffffffffffffffffffff1673ffffffffffffffffffffffffffffffffffffffff1673ffffffffffffffffffffffffffffffffffffffff16815250509050919050565b60606040518060400160405280601f81526020017f556e617574686f72697a65642c4e6f742061205374616b6520486f6c646572008152506116e07f00000000000000000000000000000000000000000000000000000000000000003361134a565b8190611722576040517f08c379a00000000000000000000000000000000000000000000000000000000081526004016117199190612c89565b60405180910390fd5b50600560003373ffffffffffffffffffffffffffffffffffffffff1673ffffffffffffffffffffffffffffffffffffffff1681526020019081526020016000208054806020026020016040519081016040528092919081815260200182805480156117ac57602002820191906000526020600020905b815481526020019060010190808311611798575b505050505091505090565b6117c0826108b6565b6117c981611c78565b6117d38383611d85565b50505050565b6000341161181c576040517f08c379a000000000000000000000000000000000000000000000000000000000815260040161181390613421565b60405180910390fd5b6118467f00000000000000000000000000000000000000000000000000000000000000003361134a565b6119b757600034600760003373ffffffffffffffffffffffffffffffffffffffff1673ffffffffffffffffffffffffffffffffffffffff16815260200190815260200160002054611897919061326b565b90507f000000000000000000000000000000000000000000000000000000000000000081106119305780600860003373ffffffffffffffffffffffffffffffffffffffff1673ffffffffffffffffffffffffffffffffffffffff1681526020019081526020016000208190555061192e7f000000000000000000000000000000000000000000000000000000000000000033611c8c565b505b34600760003373ffffffffffffffffffffffffffffffffffffffff1673ffffffffffffffffffffffffffffffffffffffff168152602001908152602001600020600082825461197f919061326b565b925050819055506119b07f000000000000000000000000000000000000000000000000000000000000000033611c8c565b5050611a64565b34600760003373ffffffffffffffffffffffffffffffffffffffff1673ffffffffffffffffffffffffffffffffffffffff1681526020019081526020016000206000828254611a06919061326b565b9250508190555034600860003373ffffffffffffffffffffffffffffffffffffffff1673ffffffffffffffffffffffffffffffffffffffff1681526020019081526020016000206000828254611a5c919061326b565b925050819055505b3460036000828254611a76919061326b565b925050819055503073ffffffffffffffffffffffffffffffffffffffff163373ffffffffffffffffffffffffffffffffffffffff167fa596782d699d74613fcbf59d33e720baabd313d6be9c95e2268f305430305eb77f000000000000000000000000000000000000000000000000000000000000000034604051611afc92919061348d565b60405180910390a3565b60007f01ffc9a7000000000000000000000000000000000000000000000000000000007bffffffffffffffffffffffffffffffffffffffffffffffffffffffff1916827bffffffffffffffffffffffffffffffffffffffffffffffffffffffff1916149050919050565b600260005403611bac576040517f3ee5aeb500000000000000000000000000000000000000000000000000000000815260040160405180910390fd5b6002600081905550565b6000808373ffffffffffffffffffffffffffffffffffffffff1683604051611bdd906134fa565b60006040518083038185875af1925050503d8060008114611c1a576040519150601f19603f3d011682016040523d82523d6000602084013e611c1f565b606091505b5050905080611c63576040517f08c379a0000000000000000000000000000000000000000000000000000000008152600401611c5a90613581565b60405180910390fd5b600191505092915050565b6001600081905550565b611c8981611c84611d7d565b61200c565b50565b6000611c98838361134a565b611d7257600180600085815260200190815260200160002060000160008473ffffffffffffffffffffffffffffffffffffffff1673ffffffffffffffffffffffffffffffffffffffff16815260200190815260200160002060006101000a81548160ff021916908315150217905550611d0f611d7d565b73ffffffffffffffffffffffffffffffffffffffff168273ffffffffffffffffffffffffffffffffffffffff16847f2f8788117e7eff1d82e926ec794901d17c78024a50270940304540a733656f0d60405160405180910390a460019050611d77565b600090505b92915050565b600033905090565b6000611d91838361134a565b15611e6d5760006001600085815260200190815260200160002060000160008473ffffffffffffffffffffffffffffffffffffffff1673ffffffffffffffffffffffffffffffffffffffff16815260200190815260200160002060006101000a81548160ff021916908315150217905550611e0a611d7d565b73ffffffffffffffffffffffffffffffffffffffff168273ffffffffffffffffffffffffffffffffffffffff16847ff6391f5c32d9c69d2a47ea670b442974b53935d1edc7fd64eb21e047a839171b60405160405180910390a460019050611e72565b600090505b92915050565b8060070160009054906101000a900460ff1680611e99575042816002015411155b15611ef65760018160070160006101000a81548160ff0219169083151502179055506040517f08c379a0000000000000000000000000000000000000000000000000000000008152600401611eed906135ed565b60405180910390fd5b6000600560003373ffffffffffffffffffffffffffffffffffffffff1673ffffffffffffffffffffffffffffffffffffffff168152602001908152602001600020805480602002602001604051908101604052809291908181526020018280548015611f8157602002820191906000526020600020905b815481526020019060010190808311611f6d575b5050505050905060005b815181101561200757818181518110611fa757611fa6612f3a565b5b6020026020010151836000015403611ff4576040517f08c379a0000000000000000000000000000000000000000000000000000000008152600401611feb90613659565b60405180910390fd5b8080611fff90612f69565b915050611f8b565b505050565b612016828261134a565b6120595780826040517fe2517d3f000000000000000000000000000000000000000000000000000000008152600401612050929190613688565b60405180910390fd5b5050565b60405180610180016040528060008152602001600081526020016000815260200160008152602001600081526020016060815260200160608152602001600015158152602001600015158152602001600073ffffffffffffffffffffffffffffffffffffffff168152602001600073ffffffffffffffffffffffffffffffffffffffff168152602001600073ffffffffffffffffffffffffffffffffffffffff1681525090565b6040518060600160405280600073ffffffffffffffffffffffffffffffffffffffff168152602001600081526020016000151581525090565b6000604051905090565b600080fd5b600080fd5b60007fffffffff0000000000000000000000000000000000000000000000000000000082169050919050565b61218681612151565b811461219157600080fd5b50565b6000813590506121a38161217d565b92915050565b6000602082840312156121bf576121be612147565b5b60006121cd84828501612194565b91505092915050565b60008115159050919050565b6121eb816121d6565b82525050565b600060208201905061220660008301846121e2565b92915050565b6000819050919050565b61221f8161220c565b811461222a57600080fd5b50565b60008135905061223c81612216565b92915050565b60006020828403121561225857612257612147565b5b60006122668482850161222d565b91505092915050565b600081519050919050565b600082825260208201905092915050565b6000819050602082019050919050565b600073ffffffffffffffffffffffffffffffffffffffff82169050919050565b60006122c68261229b565b9050919050565b6122d6816122bb565b82525050565b6122e58161220c565b82525050565b6122f4816121d6565b82525050565b60608201600082015161231060008501826122cd565b50602082015161232360208501826122dc565b50604082015161233660408501826122eb565b50505050565b600061234883836122fa565b60608301905092915050565b6000602082019050919050565b600061236c8261226f565b612376818561227a565b93506123818361228b565b8060005b838110156123b2578151612399888261233c565b97506123a483612354565b925050600181019050612385565b5085935050505092915050565b600060208201905081810360008301526123d98184612361565b905092915050565b6123ea8161220c565b82525050565b600060208201905061240560008301846123e1565b92915050565b6000819050919050565b61241e8161240b565b811461242957600080fd5b50565b60008135905061243b81612415565b92915050565b60006020828403121561245757612456612147565b5b60006124658482850161242c565b91505092915050565b6124778161240b565b82525050565b6000602082019050612492600083018461246e565b92915050565b6124a1816122bb565b81146124ac57600080fd5b50565b6000813590506124be81612498565b92915050565b600080604083850312156124db576124da612147565b5b60006124e98582860161242c565b92505060206124fa858286016124af565b9150509250929050565b600081519050919050565b600082825260208201905092915050565b6000819050602082019050919050565b600081519050919050565b600082825260208201905092915050565b60005b8381101561256a57808201518184015260208101905061254f565b60008484015250505050565b6000601f19601f8301169050919050565b600061259282612530565b61259c818561253b565b93506125ac81856020860161254c565b6125b581612576565b840191505092915050565b60006125cb8261229b565b9050919050565b6125db816125c0565b82525050565b6000610180830160008301516125fa60008601826122dc565b50602083015161260d60208601826122dc565b50604083015161262060408601826122dc565b50606083015161263360608601826122dc565b50608083015161264660808601826122dc565b5060a083015184820360a086015261265e8282612587565b91505060c083015184820360c08601526126788282612587565b91505060e083015161268d60e08601826122eb565b506101008301516126a26101008601826122eb565b506101208301516126b76101208601826125d2565b506101408301516126cc6101408601826122cd565b506101608301516126e16101608601826122cd565b508091505092915050565b60006126f883836125e1565b905092915050565b6000602082019050919050565b600061271882612504565b612722818561250f565b93508360208202850161273485612520565b8060005b85811015612770578484038952815161275185826126ec565b945061275c83612700565b925060208a01995050600181019050612738565b50829750879550505050505092915050565b6000602082019050818103600083015261279c818461270d565b905092915050565b600080fd5b600080fd5b7f4e487b7100000000000000000000000000000000000000000000000000000000600052604160045260246000fd5b6127e682612576565b810181811067ffffffffffffffff82111715612805576128046127ae565b5b80604052505050565b600061281861213d565b905061282482826127dd565b919050565b600067ffffffffffffffff821115612844576128436127ae565b5b61284d82612576565b9050602081019050919050565b82818337600083830152505050565b600061287c61287784612829565b61280e565b905082815260208101848484011115612898576128976127a9565b5b6128a384828561285a565b509392505050565b600082601f8301126128c0576128bf6127a4565b5b81356128d0848260208601612869565b91505092915050565b600080600080608085870312156128f3576128f2612147565b5b600085013567ffffffffffffffff8111156129115761291061214c565b5b61291d878288016128ab565b945050602085013567ffffffffffffffff81111561293e5761293d61214c565b5b61294a878288016128ab565b935050604061295b878288016124af565b925050606061296c8782880161222d565b91505092959194509250565b612981816121d6565b811461298c57600080fd5b50565b60008135905061299e81612978565b92915050565b600080604083850312156129bb576129ba612147565b5b60006129c98582860161222d565b92505060206129da8582860161298f565b9150509250929050565b6060820160008201516129fa60008501826122cd565b506020820151612a0d60208501826122dc565b506040820151612a2060408501826122eb565b50505050565b6000606082019050612a3b60008301846129e4565b92915050565b600061018083016000830151612a5a60008601826122dc565b506020830151612a6d60208601826122dc565b506040830151612a8060408601826122dc565b506060830151612a9360608601826122dc565b506080830151612aa660808601826122dc565b5060a083015184820360a0860152612abe8282612587565b91505060c083015184820360c0860152612ad88282612587565b91505060e0830151612aed60e08601826122eb565b50610100830151612b026101008601826122eb565b50610120830151612b176101208601826125d2565b50610140830151612b2c6101408601826122cd565b50610160830151612b416101608601826122cd565b508091505092915050565b60006020820190508181036000830152612b668184612a41565b905092915050565b600081519050919050565b600082825260208201905092915050565b6000819050602082019050919050565b6000612ba683836122dc565b60208301905092915050565b6000602082019050919050565b6000612bca82612b6e565b612bd48185612b79565b9350612bdf83612b8a565b8060005b83811015612c10578151612bf78882612b9a565b9750612c0283612bb2565b925050600181019050612be3565b5085935050505092915050565b60006020820190508181036000830152612c378184612bbf565b905092915050565b600082825260208201905092915050565b6000612c5b82612530565b612c658185612c3f565b9350612c7581856020860161254c565b612c7e81612576565b840191505092915050565b60006020820190508181036000830152612ca38184612c50565b905092915050565b7f496e73756666696369656e742046756e64730000000000000000000000000000600082015250565b6000612ce1601283612c3f565b9150612cec82612cab565b602082019050919050565b60006020820190508181036000830152612d1081612cd4565b9050919050565b7f5061796d656e742068617320616c72656164792068617070656e656400000000600082015250565b6000612d4d601c83612c3f565b9150612d5882612d17565b602082019050919050565b60006020820190508181036000830152612d7c81612d40565b9050919050565b7f496e73756666696369656e7420566f7465730000000000000000000000000000600082015250565b6000612db9601283612c3f565b9150612dc482612d83565b602082019050919050565b60006020820190508181036000830152612de881612dac565b9050919050565b7f4e487b7100000000000000000000000000000000000000000000000000000000600052601160045260246000fd5b6000612e298261220c565b9150612e348361220c565b9250828203905081811115612e4c57612e4b612def565b5b92915050565b7f5041594d454e54205452414e5346455252454400000000000000000000000000600082015250565b6000612e88601383612c3f565b9150612e9382612e52565b602082019050919050565b6000606082019050612eb3600083018561246e565b8181036020830152612ec481612e7b565b9050612ed360408301846123e1565b9392505050565b7f4e487b7100000000000000000000000000000000000000000000000000000000600052602260045260246000fd5b60006002820490506001821680612f2157607f821691505b602082108103612f3457612f33612eda565b5b50919050565b7f4e487b7100000000000000000000000000000000000000000000000000000000600052603260045260246000fd5b6000612f748261220c565b91507fffffffffffffffffffffffffffffffffffffffffffffffffffffffffffffffff8203612fa657612fa5612def565b5b600182019050919050565b600063ffffffff82169050919050565b6000612fcc82612fb1565b915063ffffffff8203612fe257612fe1612def565b5b600182019050919050565b60008190508160005260206000209050919050565b60006020601f8301049050919050565b600082821b905092915050565b60006008830261304f7fffffffffffffffffffffffffffffffffffffffffffffffffffffffffffffffff82613012565b6130598683613012565b95508019841693508086168417925050509392505050565b6000819050919050565b600061309661309161308c8461220c565b613071565b61220c565b9050919050565b6000819050919050565b6130b08361307b565b6130c46130bc8261309d565b84845461301f565b825550505050565b600090565b6130d96130cc565b6130e48184846130a7565b505050565b5b81811015613108576130fd6000826130d1565b6001810190506130ea565b5050565b601f82111561314d5761311e81612fed565b61312784613002565b81016020851015613136578190505b61314a61314285613002565b8301826130e9565b50505b505050565b600082821c905092915050565b600061317060001984600802613152565b1980831691505092915050565b6000613189838361315f565b9150826002028217905092915050565b6131a282612530565b67ffffffffffffffff8111156131bb576131ba6127ae565b5b6131c58254612f09565b6131d082828561310c565b600060209050601f83116001811461320357600084156131f1578287015190505b6131fb858261317d565b865550613263565b601f19841661321186612fed565b60005b8281101561323957848901518255600182019150602085019450602081019050613214565b868310156132565784890151613252601f89168261315f565b8355505b6001600288020188555050505b505050505050565b60006132768261220c565b91506132818361220c565b925082820190508082111561329957613298612def565b5b92915050565b7f50524f504f53414c205241495345440000000000000000000000000000000000600082015250565b60006132d5600f83612c3f565b91506132e08261329f565b602082019050919050565b6000606082019050613300600083018561246e565b8181036020830152613311816132c8565b905061332060408301846123e1565b9392505050565b7f50524f504f53414c20564f544500000000000000000000000000000000000000600082015250565b600061335d600d83612c3f565b915061336882613327565b602082019050919050565b6000606082019050613388600083018561246e565b818103602083015261339981613350565b90506133a860408301846123e1565b9392505050565b7f436f6e747269627574696f6e2073686f756c64206265206d6f7265207468616e60008201527f2030000000000000000000000000000000000000000000000000000000000000602082015250565b600061340b602283612c3f565b9150613416826133af565b604082019050919050565b6000602082019050818103600083015261343a816133fe565b9050919050565b7f434f4e545249425554494f4e2052454345564945440000000000000000000000600082015250565b6000613477601583612c3f565b915061348282613441565b602082019050919050565b60006060820190506134a2600083018561246e565b81810360208301526134b38161346a565b90506134c260408301846123e1565b9392505050565b600081905092915050565b50565b60006134e46000836134c9565b91506134ef826134d4565b600082019050919050565b6000613505826134d7565b9150819050919050565b7f5061796d656e74204661696c65642c536f6d657468696e672077656e7420777260008201527f6f6e670000000000000000000000000000000000000000000000000000000000602082015250565b600061356b602383612c3f565b91506135768261350f565b604082019050919050565b6000602082019050818103600083015261359a8161355e565b9050919050565b7f70726f706f73616c206475726174696f6e206578706972656400000000000000600082015250565b60006135d7601983612c3f565b91506135e2826135a1565b602082019050919050565b60006020820190508181036000830152613606816135ca565b9050919050565b7f446f75626c6520566f74696e67206973206e6f7420616c6c6f77656400000000600082015250565b6000613643601c83612c3f565b915061364e8261360d565b602082019050919050565b6000602082019050818103600083015261367281613636565b9050919050565b613682816122bb565b82525050565b600060408201905061369d6000830185613679565b6136aa602083018461246e565b939250505056fe70726f706f73616c206372656174696f6e20616c6c6f77656420666f7220746865207374616b6520686f6c64657273206f6e6c79a264697066735822122033b14a8bf92b434be72155a523a767df043066edecb56368f73a57ac72ce8ef264736f6c63430008140033",
  "linkReferences": {},
  "deployedLinkReferences": {}
}